:020000021000EC
:10C000000000022001F001005DF0010075BD02009A
:10C0100061F0010063F0010065F001000000000024
:10C02000000000000000000000000000DD1D020014
:10C0300069F0010000000000FD1D02003D920300B8
:10C04000D96403006FF0010035650300E95903006E
:10C050006FF001006FF00100415103006FF001002B
:10C06000E1610300396203006FF001000158030031
:10C070006FF00100E54C03006FF001006FF001006C
:10C08000E9620300019803006FF001006FF0010006
:10C090006FF001006FF001000DEA02006FF0010087
:10C0A0006FF001006FF001006FF00100916203007A
:10C0B0006FF001006FF001000000000000000000C0
:10C0C0006FF001006FF001006FF00100695A03008A
:10C0D000B15803006FF001006FF00100A57203007A
:10C0E0006FF00100000000000000000000000000F0
:10C0F000000000006FF00100000000006159030023
:10C10000000000000000000000000000000000002F
:10C11000000000000000000000000000000000001F
:10C12000000000000000000000000000000000000F
:10C1300000000000000000000000000000000000FF
:10C1400000000000000000000000000000000000EF
:10C1500000000000000000000000000000000000DF
:10C1600000000000000000000000000000000000CF
:10C1700000000000000000000000000000000000BF
:10C1800000000000000000000000000000000000AF
:10C19000000000000000000000000000000000009F
:10C1A000000000000000000000000000000000008F
:10C1B000000000000000000000000000000000007F
:10C1C000000000000000000000000000000000006F
:10C1D000000000000000000000000000000000005F
:10C1E000000000000000000000000000000000004F
:10C1F000000000000000000000000000000000003F
:10E00000EFBEADDE000000000000000000000000D8
:10E010000000000000000000000000000000000000
:10E0200000000000000000000000000000000000F0
:10E0300000000000000000000000000000000000E0
:10E0400000000000000000000000000000000000D0
:10F0000000F036B80F484FF00701884385460E4898
:10F0100080470E48016841F470010160BFF34F8FD3
:10F02000BFF36F8F00F026B809480A490A4A8842A0
:10F0300007D0521A05D0037801300B700131013A24
:10F04000F9D17047000002201974030088ED00E038
:10F05000B4450600582700206C270020FEE7FEE795
:10F06000FEE7FEE7FEE7FEE7FEE7FEE7FEE7FEE778
:10F07000FFF7C8BF314932480A1A02D0072291432C
:10F080008D46304930480A1A06D00722914381F351
:10F090000988022282F314882C482D492D4A00F059
:10F0A0003CF82D482D492E4A00F037F82D482E49BE
:10F0B0002E4A00F032F82E482E492F4A00F02DF843
:10F0C0002E482F492F4A00F028F82F482F49304A60
:10F0D00000F023F82F483049304A00F01EF830483D
:10F0E0003049002200F024F82F483049002200F077
:10F0F0001FF82F4A90471F481F49884205D00268D1
:10F10000043003B4904703BCF7E700208646EC4682
:10F1100000200021274A9047FEE7884207D0521A74
:10F1200005D0037801300B700131013AF9D17047F5
:10F13000884202D002700130FAE7704700000220D6
:10F1400000F801200000022000000220AC090700A6
:10F150006C270020302D0020B8F10100B8F101002B
:10F16000C4430600AC0907006C2700206C27002070
:10F170003C4606003C4606003C4606003C4606006F
:10F180003C4606003C4606003C4606003C4606005F
:10F19000AC090700700F0700302D0020302D002033
:10F1A000302D002068350120683501206C350120A4
:08F1B00029F0010015F2010035
:10F1B8000048704760350120FEE7000041DF7047D6
:10F1C80008B50DF0C1FB0028FBD101F073F9F8E791
:10F1D80000B50B4A0B490C4883B00123CDE9003236
:10F1E80000234FF4807200F0EDFF012802D103B034
:10F1F8005DF804FB042003B05DF804EB0BF044B8A1
:10F20800302D00203C460600C9F10100F0B5CDB014
:10F2180015F028FB002872D13C4D2B6898473C4BD1
:10F228009B6C9847FFF7D4FF3A483B4B3B4A3C4915
:10F2380000903C481FF022FE01201FF05DFE18F0F0
:10F248006BFA4FF08053384AD3F8A4100091374B2B
:10F25800202104A81EF0B8FD04A81CF015FD18F024
:10F26800A3F919F031FB19F06FFB00284AD118F007
:10F27800B7FA2F4B93E80300ADF80C10029020F07A
:10F28800A1F807462EF008FC2A4A2B4906460CA886
:10F298001EF0B0FD0CAB254A2849044618181EF08C
:10F2A800A9FD0CAB04441819254A26491EF0A2FDF5
:10F2B8000CAB04441819244902AA1EF09BFD0CABA0
:10F2C8000444181921493A461EF094FD0CAB044435
:10F2D80018191F4932461EF08DFD0CAB04441D4A17
:10F2E8001D4918191EF086FD6B6804F123010CA84E
:10F2F800984719F005F80F200AF0C6FFFBE70AF057
:10F30800C3FF89E713200AF0BFFFB0E79827002062
:10F318000C280020C5E2020011E50200D5E4020035
:10F32800BD800300A580030044460600E0460600B1
:10F33800C4460600CC460600504606006446060051
:10F34800EC460600704606007C460600BC460600F1
:10F358008C46060098460600A446060008B50FF03D
:10F368008FFA30B930BF094B1868BDE8084001F082
:10F3780067B9FFF723FF0028F5D00AF085FF034B94
:10F388001868BDE8084001F05BB900BF302D0020C7
:10F3980018F03ABA00F108034FF0FF310022C0E933
:10F3A8000131C0E903330260704700BF00230361E5
:10F3B800704700BF43689A688A60026810B49C6806
:10F3C8004B600132616099605DF8044B086102602E
:10F3D800704700BF30B40D686B1C10D000F10803F3
:10F3E8001C465B681A68AA42FAD902684B60013267
:10F3F80099608C606160086130BC02607047046984
:10F408006368F2E7036910B4D0E901125C688A60A6
:10F418008442516008BF5A601A685DF8044B0021A5
:10F42800013A01611A601868704700BFF8B50746CD
:10F4380016460D4651B100FB01F0503002F0C6FBF4
:10F44800044668B300F15003036005E0502002F061
:10F45800BDFB044620B32460C4E90F7502F036FDF5
:10F46800D4E90F13226803FB01F1CB1A1144616040
:10F4780000211344A163FF2184F84410C4E9022346
:10F4880084F8451004F11000FFF784FF04F124000C
:10F49800FFF780FF02F024FD84F84C602046F8BD99
:10F4A80000242046F8BD00BFF8B5064650200D469A
:10F4B80002F08CFB044620B300272060C0E90F67E8
:10F4C80002F004FDD4E90F312268A26001FB03F3C6
:10F4D800591A134463600A44FF23A763E26084F85F
:10F4E800443004F1100084F84530FFF753FF04F16D
:10F4F8002400FFF74FFF02F0F3FC022384F84C309E
:10F50800A5632046F8BD00BF2DE9F047044684B046
:10F518001F460192884600F1240602F0D7FCA26B30
:10F52800E36BDFF830939A424FF0000A7AD3022F48
:10F5380000F0E480019D002D00F00D8102ADBAF1CC
:10F54800000F00F0D78002F0CBFC01F0A9F902F01F
:10F55800BDFC94F84430FF2B04BF002384F84430EA
:10F5680094F84530FF2B04BF002384F8453002F09F
:10F57800B7FC01A9284601F0E9FD002840F0F18018
:10F5880002F0A4FCA26BE36B9A425FD002F0A8FCE5
:10F5980002F09CFC94F8452055B2002D04DC11E0E3
:10F5A8006A1ED3B255B26BB1636A304653B101F0EB
:10F5B8006FFD0028F4D001F0FDFD6A1ED3B255B2EC
:10F5C800002BF1D1FF2384F8453002F089FC02F0CA
:10F5D8007DFC94F8442055B2002D14DD04F1100A86
:10F5E80003E06A1ED3B255B26BB12369504653B1DA
:10F5F80001F04EFD0028F4D001F0DCFD6A1ED3B204
:10F6080055B2002BF1D1FF2384F8443002F068FC96
:10F6180001F002FA02F05AFCA26BE36B9A424FF037
:10F62800010A84D2226CA56B002A40F0E280266889
:10F63800002E00F0F4800135A563636A002B79D1B0
:10F6480002F04EFC012004B0BDE8F08704F1100A76
:10F6580002F046FC0199504601F09EFC02F036FC8F
:10F6680094F845305DB2002D04DC11E06B1EDAB26F
:10F678005DB26AB1636A304653B101F009FD0028F2
:10F68800F4D001F097FD6B1EDAB25DB2002AF1D119
:10F69800FF2384F8453002F023FC02F017FC94F8AD
:10F6A80044305DB2002D04DC11E06B1EDAB25DB2AD
:10F6B8006AB12369504653B101F0EAFC0028F4D03E
:10F6C80001F078FD6B1EDAB25DB2002AF1D1FF239A
:10F6D80084F8443002F004FC01F09EF9002899D126
:10F6E8004FF08053C9F8043040BFBFF34F8FBFF3CA
:10F6F8006F8F8FE7284601F01DFD24E7226CA56B6C
:10F70800002A94D04146E0681EF0AEFB226CE36804
:10F7180051429B1A2268E360934204D263680B4407
:10F72800E360022F87D1002D86D10123A363636A8A
:10F73800002B85D004F1240001F0AAFC00283FF436
:10F748007FAF444B4FF080525A6040BFBFF34F8F9A
:10F75800BFF36F8F74E702F0C3FB284604B0BDE81F
:10F76800F08702F0B3FB94F845305DB2002D14DD4C
:10F7780004F1240603E06B1EDAB25DB26AB1636A73
:10F78800304653B101F084FC0028F4D001F012FD9A
:10F798006B1EDAB25DB2002AF1D1FF2384F845303E
:10F7A80002F09EFB02F092FB94F844305DB2002D0B
:10F7B80014DD04F1100603E06B1EDAB25DB26AB123
:10F7C8002369304653B101F063FC0028F4D001F0FE
:10F7D800F1FC6B1EDAB25DB2002AF1D1FF2384F886
:10F7E800443002F07DFB01F017F9002004B0BDE8B9
:10F7F800F08707BB4146A0681EF036FBA368216C62
:10F8080062680B449342A360FFF415AF0135A5630A
:10F81800636A2268A260002B3FF412AF8AE760682F
:10F82800013501F03FFDA563636A6660002B81D155
:10F83800002886D104E74146E0681EF015FB226CDB
:10F84800E36851429B1A2268E3609342BFF469AFB0
:10F8580064E700BF00ED00E070B50646502002F0F6
:10F86800B5F9044660B3002501232060C0E90F35CF
:10F8780002F02CFBD4E90F232168A56303FB02F2F5
:10F88800D31A0B440A44C4E90213FF2384F8443012
:10F89800626084F8453004F11000FFF77BFD04F145
:10F8A8002400FFF777FD02F01BFBC4E9005584F83C
:10F8B8004C60E5602B462A4629462046FFF724FE81
:10F8C800204670BD2DE9F043044683B0164699469C
:10F8D800EFF31188A02282F31188806BE26B9042CB
:10F8E80023D3022B05D0002088F3118803B0BDE88C
:10F8F800F08394F84550226CA76B6DB2DAB1E068DA
:10F908001EF0B2FA226CE1682068891A8142E1602F
:10F91800C2F1000205D261680A44E260B9F1020F3F
:10F928000CD1012F38BF012709E094F84550226C0B
:10F93800A76B6DB282B92368002B2CD001376B1CE2
:10F94800A7631AD001356DB284F84550012088F3B9
:10F95800118803B0BDE8F08323BBA0681EF084FAC9
:10F96800A368226C13446268A360934224BF23688F
:10F97800A36001376B1CA763E4D1636A002BE5D051
:10F9880004F1240001F084FB0028DFD0002EDDD034
:10F9980001203060A8E76068019301F083FC019BB7
:10F9A8006360CBE7E0681EF05FFA226CE1682068CC
:10F9B800891A8142E160C2F10002AFD2ABE700BF11
:10F9C80010B582B0EFF31184A02383F31188836B01
:10F9D800C26B9A420FD990F845200133FF2A8363FE
:10F9E80053B20DD001335BB280F84530012084F367
:10F9F800118802B010BD002084F3118802B010BD38
:10FA0800436A002BF2D02430019101F041FB002819
:10FA1800ECD001990029E9D001200860ECE700BF8B
:10FA28002DE9F043044685B00F46019202F04EFAE4
:10FA3800A56B002D40F01D81019B002B00F0CE80AE
:10FA480002A801F077FBDFF8788204F1240602F0BF
:10FA580047FA00F025FF02F039FA94F84430FF2BFA
:10FA680004BF002384F8443094F84530FF2B04BFCA
:10FA7800002384F8453002F033FA01A902A801F006
:10FA880065FB002859D102F021FAA36B002B40F046
:10FA9800AB8002F025FA0199304601F07DFA02F0B8
:10FAA80015FA94F845305DB2002D04DC11E06B1EA8
:10FAB800DAB25DB26AB1636A304653B101F0E8FA6E
:10FAC8000028F4D001F076FB6B1EDAB25DB2002A92
:10FAD800F1D1FF2384F8453002F002FA02F0F6F97A
:10FAE80094F844305DB2002D14DD04F1100903E0F0
:10FAF8006B1EDAB25DB26AB12369484653B101F0B0
:10FB0800C7FA0028F4D001F055FB6B1EDAB25DB2DB
:10FB1800002AF1D1FF2384F8443002F0E1F900F023
:10FB28007BFF002851D14FF08053C8F8043040BF04
:10FB3800BFF34F8FBFF36F8F47E002F0C7F994F818
:10FB480045305DB2002D04DC11E06B1EDAB25DB207
:10FB58006AB1636A304653B101F09AFA0028F4D0CA
:10FB680001F028FB6B1EDAB25DB2002AF1D1FF2347
:10FB780084F8453002F0B4F902F0A8F994F844305A
:10FB88005DB2002D14DD04F1100903E06B1EDAB23A
:10FB98005DB26AB12369484653B101F079FA002889
:10FBA800F4D001F007FB6B1EDAB25DB2002AF1D186
:10FBB800FF2384F8443002F093F900F02DFF02F09F
:10FBC80085F9A36B53B102F08BF902F07FF9A56BAD
:10FBD800002D4ED1019B002B7FF439AF02F080F944
:10FBE800002005B0BDE8F08302F07AF902F06EF962
:10FBF80094F845305DB2002D04DC11E06B1EDAB2DA
:10FC08005DB26AB1636A304653B101F041FA002827
:10FC1800F4D001F0CFFA6B1EDAB25DB2002AF1D14E
:10FC2800FF2384F8453002F05BF902F04FF994F8AD
:10FC380044305DB2002D14DD04F1100903E06B1EA1
:10FC4800DAB25DB26AB12369484653B101F020FACD
:10FC58000028F4D001F0AEFA6B1EDAB25DB2002AC9
:10FC6800F1D1FF2384F8443002F03AF900F0D4FED1
:10FC7800ABE7226C52B1E168636811449942E160D4
:10FC880024BF2168E16038461EF0EEF8013DA56307
:10FC980023692BB902F024F9012005B0BDE8F083EF
:10FCA80004F1100001F0F4F90028F3D0044B4FF0F0
:10FCB80080525A6040BFBFF34F8FBFF36F8FE9E7A1
:10FCC80000ED00E02DE9F043044685B000F124067C
:10FCD800019102F0FBF8A36BDFF8D8820027B94640
:10FCE800002B40F0D380019D002D00F0378102AD3C
:10FCF800B9F1000F00F0DA8002F0F2F800F0D0FD60
:10FD080002F0E4F894F84430FF2B04BF002384F891
:10FD1800443094F84530FF2B04BF002384F8453065
:10FD280002F0DEF801A9284601F010FA00285DD19A
:10FD380002F0CCF8A36B002B40F0C48002F0D0F89E
:10FD48002368002B00F019810199304601F024F94D
:10FD580002F0BCF894F845305DB2002D04DC11E0E7
:10FD68006B1EDAB25DB26AB1636A304653B101F014
:10FD78008FF90028F4D001F01DFA6B1EDAB25DB2DB
:10FD8800002AF1D1FF2384F8453002F0A9F802F0E7
:10FD98009DF894F844305DB2002D14DD04F110098B
:10FDA80003E06B1EDAB25DB26AB12369484653B10B
:10FDB80001F06EF90028F4D001F0FCF96B1EDAB2FC
:10FDC8005DB2002AF1D1FF2384F8443002F088F8AC
:10FDD80000F022FE002851D14FF08053C8F80430BB
:10FDE80040BFBFF34F8FBFF36F8F47E002F06EF84D
:10FDF80094F845305DB2002D04DC11E06B1EDAB2D8
:10FE08005DB26AB1636A304653B101F041F9002826
:10FE1800F4D001F0CFF96B1EDAB25DB2002AF1D14D
:10FE2800FF2384F8453002F05BF802F04FF894F8AD
:10FE380044305DB2002D14DD04F1100903E06B1E9F
:10FE4800DAB25DB26AB12369484653B101F020F9CC
:10FE58000028F4D001F0AEF96B1EDAB25DB2002AC8
:10FE6800F1D1FF2384F8443002F03AF800F0D4FDD1
:10FE780002F02CF8A36BEBB102F032F802F026F88E
:10FE8800A36B4FF00109002B3FF42DAF2268013B13
:10FE9800A363002A00F08A802369002B76D102F040
:10FEA8001FF80127384605B0BDE8F083284601F061
:10FEB80041F921E702F014F8002F48D1384605B07F
:10FEC800BDE8F08302F00CF802F000F894F8453031
:10FED8005DB2002D04DC11E06B1EDAB25DB26AB1CE
:10FEE800636A304653B101F0D3F80028F4D001F02A
:10FEF80061F96B1EDAB25DB2002AF1D1FF2384F8F2
:10FF0800453001F0EDFF01F0E1FF94F844305DB2B7
:10FF1800002D14DD04F1100903E06B1EDAB25DB2A6
:10FF28006AB12369484653B101F0B2F80028F4D009
:10FF380001F040F96B1EDAB25DB2002AF1D1FF235D
:10FF480084F8443001F0CCFF00F066FD96E701F03C
:10FF5800BDFF616A49B9606801F0D4F901F0C0FFDA
:10FF68000027384605B0BDE8F083236B6068196840
:10FF7800C1F1070101F0C6F9F0E701F0A7FF6068D9
:10FF880001F04AF9074601F0ABFFDDE604F1100085
:10FF980001F07EF8002882D0064B4FF080525A605C
:10FFA80040BFBFF34F8FBFF36F8F78E701F0E4F9DD
:10FFB800606071E700ED00E02DE9F0410446EFF3E1
:10FFC8001188A02383F31188856B25B9284688F307
:10FFD8001188BDE8F08190F844701646026C7FB233
:10FFE80062B9013D7B1CA56317D001377FB284F845
:08FFF8004470012088F3118818
:020000022000DC
:10000000BDE8F0810846E168636811449942E16007
:1000100024BF2168E1601DF02BFF013D7B1CA5631F
:10002000E7D12369002BE8D004F1100001F034F887
:100030000028E2D0002EE0D001203060CBE700BFE6
:100040001B4B5A68904218D0DA6890421ED05A6909
:1000500090421DD0DA6990421CD05A6A90421BD05F
:10006000DA6A90421AD05A6B904219D0DA6B9042F9
:1000700008BF072202D001F04BBE00229FED0A7B91
:1000800003EBC20383ED007B01F042BE0122F5E7E2
:100090000222F3E70322F1E70422EFE70522EDE76E
:1000A0000622EBE7AFF30080000000000000000034
:1000B000382D0020124B1A687AB19A6862B11A6919
:1000C00092B19A6992B11A6A92B19A6A92B11A6B14
:1000D00092B19A6B92B17047012203EBC20C43F8C4
:1000E0003210CCF8040070470222F6E70322F4E74E
:1000F0000422F2E70522F0E70622EEE70722ECE70A
:10010000382D002070B505460E46144601F0E2FE7B
:1001100095F84430FF2B04BF002385F8443095F850
:100120004530FF2B04BF002385F8453001F0DCFE8D
:10013000AB6B002B43D001F0CDFE95F845305CB29F
:10014000002C14DD05F1240603E0631EDAB25CB274
:100150006AB16B6A304653B100F09EFF0028F4D0BC
:1001600001F02CF8631EDAB25CB2002AF1D1FF2351
:1001700085F8453001F0B8FE01F0ACFE95F844304A
:100180005CB2002C14DD05F1100603E0631EDAB248
:100190005CB26AB12B69304653B100F07DFF002894
:1001A000F4D001F00BF8631EDAB25CB2002AF1D190
:1001B000FF2385F84430BDE8704001F095BE22462B
:1001C000314605F1240000F027FFB4E72DE9F84F90
:1001D0009600804630460D46994601F0FBFC00280B
:1001E00000F0AA800746582001F0F4FC04460028DD
:1001F00000F0AF80076332463846A5211DF061FE4E
:100200002B7884F834302B78D4F830B0002B35D0EC
:100210006B7884F835306B78002B2FD0AB7884F86E
:100220003630AB7853B3EB7884F83730EB782BB3B8
:100230002B7984F838302B7903B36B7984F8393013
:100240006B79DBB1AB7984F83A30AB79B3B1EB7948
:1002500084F83B30EB798BB12B7A84F83C302B7AE5
:1002600063B16B7A84F83D306B7A3BB1AB7A84F83A
:100270003E30AB7A13B1EB7A84F83F300A9D062DFD
:1002800028BF06254FF0000A271DE562A564384601
:1002900084F83FA0C4F84CA0043EFFF78BF85E44FE
:1002A00004F11800C5F10705FFF784F8C4F850A061
:1002B000A56184F854A0246164624A46414626F050
:1002C000070001F0CFFD0B9B206003B11C6001F023
:1002D00001FE3B4A3B4D1368013313602B68002B32
:1002E00040D0394E33685BB3E06ADFF80481374AA7
:1002F000374913680133136023640B68834238BFA6
:10030000086000EB800008EB80003946FFF756F8E4
:1003100001F0EAFD336813B32A68E36AD26A9A42AD
:100320001DD22C4B4FF080525A6040BFBFF34F8F0D
:10033000BFF36F8F012001E04FF0FF30BDE8F88F71
:100340002B68E06ADB6ADFF8A880834298BF2C60E4
:10035000CDE7384601F0DCFC4FF0FF30EEE701203E
:10036000BDE8F88F2C601368012B04D0E06ADFF839
:100370008080154EBBE7DFF87880464608F18C098F
:1003800030461436FFF70AF84E45F9D1DFF864908D
:10039000114E4846FFF702F83046FEF7FFFF0F48C0
:1003A000FEF7FCFF0E48FEF7F9FF0E48FEF7F6FFDA
:1003B0000D4BE06AC3F800900C4B1E60024E96E7AE
:1003C000102E0020782D0020702E0020202E0020DE
:1003D000242E002000ED00E03C2E00205C2E0020AA
:1003E000882E0020742E00207C2D0020802D0020DF
:1003F000842D0020282E002070B50446264D01F0E3
:1004000069FD002C3BD0261D3046FEF7FFFFA36A96
:100410001BB104F11800FEF7F9FF204A13680133FD
:1004200013602B68A34221D01D4A206B1368013B47
:10043000136001F06DFC204601F06AFC194B1A684C
:10044000126872B11A68184BD268D26852681A6082
:1004500001F04AFD154B1B6813B12B68A34210D065
:1004600070BD114B4FF0FF321A60F1E71048314672
:10047000FEF7A4FF0F4A136801331360E8E72C6806
:10048000C1E70D4B4FF080525A6040BFBFF34F8F12
:10049000BFF36F8F70BD00BF782D0020202E00208D
:1004A000102E00207C2D0020542E0020702E0020C5
:1004B000882E0020142E002000ED00E070B50446C8
:1004C000564E01F007FD002C00F08C80251D2846BB
:1004D000FEF79CFFA36A1BB104F11800FEF796FF1C
:1004E00029464F484F4DFEF769FF94F85430012BD1
:1004F00004BF002384F8543001F0F6FC2B68002B75
:1005000061D13368A34200D070BD2B68002B70D13D
:100510004349454A09681268914274D0434B1B68AD
:10052000002B72D1424A434813600268424B02EBEF
:100530008204A40091001C59002C34D1541E04EBF9
:10054000840189005D58A100002D62D1941E04EB46
:10055000840189005D58A100002D5AD1D41E04EBFE
:10056000840189005D58A100002D52D1141F04EBB5
:10057000840189005D58A100002D4AD1541F04EB6D
:10058000840189005958002945D1941F04EB840146
:1005900089005D58A100002D3BD1073A02EB82048F
:1005A000A40091001C59114403EB810423466168A7
:1005B000496861600833994204BF49686160CB684B
:1005C0003360026070BD01F085FC1C4B1A68126834
:1005D00052B11A681A4BD268D26852681A6001F098
:1005E00083FC8EE7346871E7154B4FF0FF321A60D9
:1005F000F5E7144B4FF080525A6040BFBFF34F8F66
:10060000BFF36F8F70BD336070BD094B01221A605C
:1006100070BD2246C7E72246A100C4E7782D00201E
:10062000742E0020702E0020102E00201C2E002082
:10063000A02E0020242E0020842D00207C2D0020C0
:10064000542E002000ED00E098B130B51D4D2B6810
:10065000834283B004460AD001F03CFC1A4B626925
:100660009A4207D003B0BDE8304001F03DBC03B072
:1006700030BD7047A36A154A9342F3D0002BF1D1E5
:10068000211D08460191FEF7C1FE114AE36A106878
:10069000019983420F4888BF136003EB830300EB8B
:1006A0008300FEF78BFE2B68E26ADB6A9A42D9D39D
:1006B000094B4FF080525A6040BFBFF34F8FBFF3DA
:1006C0006F8FCFE7782D0020742E00205C2E002045
:1006D000242E0020842D002000ED00E02DE9F843B9
:1006E0004FF4007001F076FA002879D005465820C2
:1006F00001F070FA0446002874D04FF40072A5216E
:10070000056328461DF0DDFB0025544B266B636313
:10071000271D3846C4E9125584F8385084F83F50F4
:10072000E562FEF747FE04F11800FEF743FE0723DB
:1007300006F5FE702A464A492565A3612461646274
:1007400084F8545020F0070001F08CFB454B2060EA
:100750001C6001F0BFFB444A444E13680133136030
:100760003368002B4CD0424D2B68002B3FD0E06A01
:10077000DFF82C813F4A404913680133136023643A
:100780000B68834200D2086000EB800008EB800019
:100790003946FEF713FE01F0A7FB2B686BB13268F8
:1007A000E36AD26A9A4208D2344B4FF080525A60C0
:1007B00040BFBFF34F8FBFF36F8F01F045F90128A2
:1007C0000ED1A02383F311882D4A2E4B4FF0FF3119
:1007D0001160002228601A60BDE8F84301F054BBA4
:1007E000BDE8F8832846BDE8F84301F091BA3368C4
:1007F000E06ADB6ADFF8A880834298BF3460B9E71B
:1008000034601368012B04D0E06ADFF89480184D3F
:10081000B0E7DFF88C80454608F18C09284614358E
:10082000FEF7BCFDA945F9D1DFF87890164D484692
:10083000FEF7B4FD2846FEF7B1FD1448FEF7AEFD05
:100840001348FEF7ABFD1348FEF7A8FD124BE06A14
:10085000C3F80090114B1D60054D8BE749444C4592
:10086000C50B0200502E0020102E0020782D0020F5
:10087000702E0020202E0020242E002000ED00E00D
:10088000542E00209C2E00203C2E00205C2E0020A8
:10089000882E0020742E00207C2D0020802D00202A
:1008A000842D0020282E0020024A13680133136093
:1008B000704700BF1C2E0020014B1868704700BF16
:1008C0009C2E0020014B1868704700BF9C2E002012
:1008D000014B1868704700BF102E0020024A1368B1
:1008E00018441060704700BF9C2E00202DE9F04F87
:1008F000404B1B6883B0002B46D13F4B1E6801362E
:100900001E60002E4ED0DFF808B1DBF80030B34295
:100910005FD83A4F3B681D68002D65D0DFF8F48042
:10092000DFF8F4A0DFF8F490002522E00191FEF753
:100930006DFDA36A019904F1180013B1FEF766FD7D
:100940000199E36AD8F8002003EB830093420AEB95
:10095000800088BFC8F80030FEF730FDD9F80020CD
:100960003B68E16AD26A1B68914228BF0125002BCF
:100970003AD03B68DB68DC686368211D9E4208460C
:10098000D4D2CBF8003004E01D4A136801330025AF
:1009900013601C4B1B68002B0CBF2846012003B0C2
:1009A000BDE8F08F154B184A18681168196017498F
:1009B00010600A6801320A601A6812685AB9DFF8D2
:1009C00050B04FF0FF33CBF80030DBF80030B342CB
:1009D0009FD90025DDE71B68DFF834B0DB68DB68F2
:1009E0005B68CBF8003090E74FF0FF33CBF8003076
:1009F000CFE700BF1C2E00209C2E00207C2D002065
:100A0000182E0020A02E0020802D0020582E00201F
:100A1000542E0020242E0020842D0020782D00202C
:100A20002DE9F04F83B001F055FA3A4B1A68013ABC
:100A30001A601B68002B55D1374B1B68002B51D017
:100A4000364D2B68002B62D0354EDFF8EC80354FE9
:100A5000DFF8E8904FF0010AEB68DC6804F1040B62
:100A600004F11800FEF7D2FC5846FEF7CFFCE36A0B
:100A7000326803EB83009342594608EB800088BF3D
:100A80003360FEF79BFC3B68E26ADB6A9A4231D333
:100A9000C9F800A02B68002BDED1234B1A6812681E
:100AA000002A2FD01A68214BD268D26852681A6087
:100AB0001F4E346844B10125FFF718FF08B1C9F88B
:100AC0000050013CF8D13460D9F8003053B1194BD3
:100AD0004FF080525A6040BFBFF34F8FBFF36F8F0C
:100AE000012000E00020019001F0FEF9019803B020
:100AF000BDE8F08F2B68002BAED10B4B1A68126843
:100B0000002ACFD1094B4FF0FF321A60D0E7DFF84F
:100B10002C90CDE71C2E0020102E00205C2E0020F3
:100B2000242E0020782D00207C2D0020542E002023
:100B3000182E002000ED00E0842D0020A02E0020C3
:100B400070B548B9184B4FF080525A6040BFBFF3A0
:100B50004F8FBFF36F8F70BD144A154D1368154941
:100B6000013313600E68044628680430FEF74EFC1B
:100B70002B68A4195C600FD20F4B186829680431E8
:100B8000FEF72CFC0D4B1A68944238BF1C60FFF72F
:100B900047FF0028D6D070BD094B1868296804317A
:100BA000FEF71CFCF3E700BF00ED00E01C2E002068
:100BB000782D00209C2E00207C2D0020542E00201B
:100BC000802D00202DE9F84F374C384E384DDFF896
:100BD000F490DFF8F480DFF8F4B04FF0805A14E0BE
:100BE00001F078F9F368DF68381DFEF70FFC2B6819
:100BF000013B2B602368013B236001F075F9386BE2
:100C000001F086F8384601F083F82368002BE7D11D
:100C1000284B1B68012B06D9CBF804A040BFBFF3BB
:100C20004F8FBFF36F8FFEF79DFBD9F80030FBB9F4
:100C3000D8F80030DB6A002BE7D11E4B1B68012B74
:100C4000E3D81D4B1D4A1B6812689B1A012BDCD987
:100C50001B4A136801331360D9F8003083B1D8F808
:100C60000030DB6A0BB9134B1B68FFF7D9FECCE7EA
:100C7000D8F80030DB6A002BC7D10E4B1B68C4E7E5
:100C8000D8F80030DB6A002BEFD10A4B1B68012B30
:100C9000EBD8094B1868094B1B68C01A0128E4D926
:100CA00018F0BCFDE1E700BF142E0020882E0020C4
:100CB000102E0020842D0020542E00209C2E002079
:100CC0001C2E0020242E0020782D002000ED00E0B6
:100CD0004B685B682DE9F04F01F10808434508BFF8
:100CE000CB68DFF8D0B0D3F80CA091460E460027B1
:100CF000494683B0C14604463A46B0465B68C8F8E8
:100D00000430994504BFD9F80430C8F80430DE68CF
:100D10005EB33546EB6A2361286C25602B6BA060BF
:100D2000DBF800C0A86CE361C4E90502AC4505F13D
:100D3000340060601CD00329217329D01878A528BD
:100D40001AD1C3F1010C0CEB030513F8010FA52810
:100D5000F9D0C5F38F05B245258407F1010704F1E9
:100D6000240411D0D8F80430C8E7DBF80050D1E7EC
:100D700022731878A528E4D00025B245258407F110
:100D8000010704F12404EDD1384603B0BDE8F08F2B
:100D90000748036801330360AB6A13B14FF00203E5
:100DA00023730191FFF73CFE2B6B01990022C5E7ED
:100DB0001C2E0020782D00202DE9F843314C2368AB
:100DC00001332360304B1B688B4254D82F4E0024D4
:100DD000074690460725A646A6F17809013D05EB92
:100DE00085030EEB040C59F823303146012207EB42
:100DF0008C0043B1FFF76CFF044404EBC4004FEADE
:100E0000C40E07EB8000143E002DE7D1204B19687B
:100E10000B683BB10222FFF75BFF044404EBC40004
:100E200007EB80001B4B19680B683BB10222FFF7F0
:100E30004FFF044404EBC40007EB800016490B6825
:100E40003BB10422FFF744FF044404EBC40007EB6A
:100E5000800012490B681BB10322FFF739FF0444DD
:100E6000B8F1000F02D00023C8F80030FFF7D8FD1A
:100E70002046BDE8F8830024FFF7D2FD2046BDE8F8
:100E8000F88300BF1C2E0020102E0020FC2D002017
:100E90007C2D0020802D0020882E0020742E002024
:100EA0003A4B1B681BB13A4B01221A607047384A13
:100EB000384830B513600268374B02EB820C4FEABA
:100EC0008C0C910053F80C40002C46D102F1FF3CF1
:100ED0000CEB8C0E4FEA8E0E4FEA8C0153F80E404D
:100EE000002C51D1A2F1020C0CEB8C0E4FEA8E0EAD
:100EF0004FEA8C0153F80E40002C45D1A2F1030CAF
:100F00000CEB8C0E4FEA8E0E4FEA8C0153F80E401C
:100F1000002C39D1A2F1040C0CEB8C0E4FEA8E0E92
:100F20004FEA8C0153F80E4074BB541F04EB840C41
:100F30004FEA8C0CA10053F80C501DBB941F04EB1E
:100F4000840C4FEA8C0CA10053F80C50D5B9073A29
:100F500002EB8204A40091001C59114403EB810CA4
:100F60006346DCF804104968CCF804100833994251
:100F700008BF4968094B08BFCCF80410C96819605C
:100F8000026030BD2246E8E76246E6E71C2E0020FC
:100F9000A02E0020242E0020842D0020782D00205B
:100FA00070B5174D2B680C4603F11801FEF716FAC1
:100FB000144B1E6828680430FEF728FA631C17D00B
:100FC0002B68A4195C6007D30F4B18682968BDE82B
:100FD00070400431FEF702BA0C4B186829680431DE
:100FE000FEF7FCF90A4B1A68944238BF1C6070BDCA
:100FF00029680848BDE870400431FEF7DFB900BF3A
:10100000782D00209C2E0020802D00207C2D00209B
:10101000542E0020742E002070B5194D2B680C46FC
:10102000164603F11801FEF7C9F9164B5EB11B68AD
:1010300028680430FEF7EAF929681348BDE87040D3
:101040000431FEF7BBB91E6828680430FEF7DEF9EC
:101050002B68A4195C6007D30C4B18682968BDE89D
:1010600070400431FEF7BAB9094B18682968043199
:10107000FEF7B4F9074B1A68944238BF1C6070BD84
:10108000782D00209C2E0020742E0020802D002022
:101090007C2D0020542E002030B5C368DC6804F19C
:1010A000180583B02846FEF7B1F91C4B1B683BBB03
:1010B000211D08460191FEF7A9F9194AE36A106853
:1010C00001998342174888BF136003EB830300EB49
:1010D0008300FEF773F9144BE26A1B68DB6A9A42DD
:1010E00082BF124B01201860114B1A68126898BF1A
:1010F000002052B90F4B4FF0FF321A6003B030BDE1
:101100000D482946FEF75AF9E5E71A68094BD268F7
:10111000D26852681A6003B030BD00BF1C2E002098
:10112000242E0020842D0020782D0020A02E0020C9
:101130007C2D0020542E00205C2E0020034A044BFE
:1011400012681B68C0E90023704700BF582E0020BA
:101150009C2E0020F0B50D4683B0044600F0BAFE88
:101160002B68144A591C10681DD0DFF84CC0D4E914
:101170000061DCF80070BE4208D0814206D8012030
:10118000019000F0B1FE019803B0F0BD471ABB42D8
:101190000BD91B1A0B44DCF8001012682B600020DE
:1011A000C4E90012ECE70020EAE700232B600120ED
:1011B000E6E700BF9C2E0020582E0020014B0122A4
:1011C0001A607047A02E0020094B186818B9094B07
:1011D0001B6813B1704700207047074A074B10681F
:1011E0001B68013B984214BF01200220704700BFDA
:1011F0005C2E0020A02E0020742E0020102E002037
:10120000054B1B6833B1054B1B68002B0CBF02203C
:101210000020704701207047702E00201C2E0020F7
:1012200070B5044682B0C8B11D4DC36A2A68D26A3F
:10123000934215D28269002A04DB2A68D26AC2F17D
:1012400007028261174E626903EB830306EB830397
:101250009A420ED02B68DB6AE362012002B070BDB7
:101260002B68806CDB6A98422CBF0020012002B002
:1012700070BD211D08460191FEF7C8F82A680A4B87
:10128000D06A1A680199E062904200D9186000EBB8
:10129000800006EB8000FEF791F80120DEE700BF3A
:1012A000782D0020842D0020242E002068B110B558
:1012B000C36CC16A826C013B914282B00446C36434
:1012C00000D023B1002002B010BD00207047011DE6
:1012D00008460191FEF79AF8A36C0A4AE362C3F14B
:1012E0000700A061106801998342074888BF136016
:1012F00003EB830300EB8300FEF760F8012002B0EC
:1013000010BD00BF242E0020842D002070B130B508
:10131000826CC36A914238BF11468B4283B0044647
:1013200002D0C26C012A02D003B030BD704782697E
:10133000114DC162002A03EB83034269A8BFC1F1CA
:10134000070105EB8303A8BF81619A42ECD1011D1F
:1013500008460191FEF75AF8084BE06A1A680199AD
:10136000904288BF186000EB800005EB800003B05E
:10137000BDE83040FEF722B8842D0020242E002046
:10138000044B1A681AB11968CA6C0132CA64186829
:10139000704700BF782D0020F8B5284C06460D4652
:1013A00000F098FD23681B6D23B92368012283F8A0
:1013B0005420ADB900F098FD00F08CFD23681D6D40
:1013C0001DB123684EB100221A652368002283F8FC
:1013D000542000F089FD2846F8BD6A1E1A65F4E71E
:1013E000174B1F6820680430FEF710F86B1C13D0F1
:1013F0002368ED195D6015D3124B1868216804311C
:10140000FDF7ECFF104B4FF080525A6040BFBFF326
:101410004F8FBFF36F8FCDE721680C480431FDF784
:10142000CDFFEFE70A4B186821680431FDF7D6FFBE
:10143000084B1A68954238BF1D60E3E7782D0020FD
:101440009C2E0020802D002000ED00E0742E002056
:101450007C2D0020542E00202DE9F041324C82B02A
:101460001E4607468846154600F034FD236893F86B
:101470005430022B09D02368186D20EA07071F6536
:101480002368012283F85420C6B900F02DFD00F036
:1014900021FD15B123681B6D2B60236893F8543030
:1014A000022B27D0002023680190002283F85420CB
:1014B00000F01AFD019802B0BDE8F0811B4B1F68D7
:1014C00020680430FDF7A2FF731C1AD02368F619B8
:1014D0005E601CD3164B186821680431FDF77EFF4F
:1014E000144B4FF080525A6040BFBFF34F8FBFF391
:1014F0006F8FCAE72368196D21EA08010120196579
:10150000D1E721680C480431FDF758FFE8E70B4BA1
:10151000186821680431FDF761FF094B1A6896428B
:1015200038BF1E60DCE700BF782D00209C2E002015
:10153000802D002000ED00E0742E00207C2D002086
:10154000542E0020F0B51E4683B004460F461546C3
:1015500000F0C0FC0EB1236D336094F854300221CA
:101560006A1EDBB284F85410032A06D8DFE802F0C2
:10157000410E0402022B45D02765012B0CD001201F
:10158000019000F0B1FC019803B0F0BD226D012B79
:1015900002F101022265F2D1211D08460191FDF7F9
:1015A00035FF194AE36A106801998342174888BFDA
:1015B000136003EB830300EB8300FDF7FFFE144B86
:1015C0001A681268CAB11A68124BD268D268526897
:1015D0001A60114BE26A1B68DB6A9A42CFD90F4B43
:1015E0004FF080525A6040BFBFF34F8FBFF36F8FF1
:1015F000C5E7216D0F432765BFE7064B4FF0FF326C
:101600001A60E6E70020BBE7242E0020842D00208E
:101610007C2D0020542E0020782D002000ED00E0CD
:1016200030B5044683B0EFF31185A02080F3118814
:101630000BB1206D186094F854300220013ADBB2EF
:1016400084F85400032A06D8DFE802F0280C0402CC
:10165000022B3BD02165012B0AD0012085F3118894
:1016600003B030BD226D012B02F101022265F4D1DD
:10167000184B1B68B3B1184804F11801FDF79EFE22
:10168000164BE26A1B68DB6A9A42E6D9069BFBB1FD
:101690000120186085F3118803B030BD226D11431D
:1016A0002165D8E7211D08460191FDF7AFFE0C4AE0
:1016B000E36A1068019983420A4888BF136003EB0C
:1016C000830300EB8300FDF779FED9E70020C5E72F
:1016D000054BDDE71C2E00205C2E0020782D00201D
:1016E000242E0020842D0020A02E002070B582B072
:1016F000EFF31185A02383F31188022390F854207F
:1017000080F85430036D012A03F10103036503D00F
:1017100085F3118802B070BD174B1B6804460E4656
:101720008BB1164804F11801FDF748FE144BE26A2C
:101730001B68DB6A9A42EBD9CEB10123336085F393
:10174000118802B070BD011D08460191FDF75EFED3
:101750000C4BE06A1A680199904288BF18600A4BE6
:1017600000EB800003EB8000FDF728FEDEE7074B6F
:1017700001221A60CCE700BF1C2E00205C2E002046
:10178000782D0020242E0020842D0020A02E002063
:101790002DE9F0431D4EDFF87C9085B04FF0000836
:1017A0000CE0DB68DC681F68251D2846FDF72EFE6F
:1017B000636A20469847E369012B0AD033681A68A8
:1017C000002AEED1124A11683160136005B0BDE8FD
:1017D000F083A3693B449F42294610D3D9F80030D7
:1017E000002BEBD0CDE900870294FFF709FD002321
:1017F000D9F800001A466946FDF78AFEDEE7306830
:1018000063602461FDF7EAFDD8E700BFA42E002045
:10181000A82E0020D82E00202DE9F04F854E864DB1
:10182000864CDFF820928BB03368D3F800A0BAF171
:10183000000F00F09A80DB68D3F800A0FFF734F8BF
:10184000FFF73AF82A688242804600F29F8082457C
:10185000286040F2AF8000222068AAEB0801FEF762
:1018600051FCFFF7DDF840B94FF08053C9F8043060
:1018700040BFBFF34F8FBFF36F8F2068002202A9D4
:10188000FEF7D2F80028CFD0029B002B65DB049F27
:101890007B6913B1381DFDF7B9FDFFF70DF82B6813
:1018A0009842804679D3029BC5F80080092BE4D882
:1018B00001A252F823F000BFE1180200E118020073
:1018C000E11802007B1802003119020053190200CE
:1018D000E1180200E11802007B1802003119020031
:1018E000039BBA693F6199182CBF01200020414534
:1018F000796055D8A8EB03039A4223D87B6A38460F
:101900009847FB692068012BB8D10028B6D0002386
:10191000BA690693039B089713440793FFF770FC7B
:10192000002320681A4606A9FDF7F2FD2068A5E706
:10193000039BBB6103EB080242457A603F6133D8E9
:10194000002B9AD03E4B391D1868FDF747FD2068E3
:1019500094E7384600F0DCF98FE7039BDDE90401EA
:101960009847029B002B88DB91E7FEF79DFFFEF76F
:10197000A3FF2A688242804608D8314BC5F8008010
:101980001A681268B2FA82F2520965E7FFF700FF9F
:10199000C5F80080FFF744F86FE7FFF7F9FE82E72C
:1019A000434501D90028A9D03068391DFDF716FD3F
:1019B000206863E7FFF734F83268D268D2F80CB0D9
:1019C0000BF1040108460191FDF720FDDBF81C0036
:1019D0000199012804D0DBF82430584698474CE799
:1019E000DBF81800CBF810B00AEB00034345CBF846
:1019F000043003D93068FDF7F1FCECE7A8EB0A03EB
:101A0000984211D82368002BE5D000230693CDF827
:101A10001CA0CDF820B0FFF7F3FB002320681A4686
:101A200006A9FDF775FDD6E7054B1868FDF7D6FC4E
:101A3000D1E700BFA42E0020D42E0020D82E0020F5
:101A4000A82E002000ED00E0F0B5174C83B000F0A8
:101A500041FA25687DB100F047FA206848B1134A81
:101A6000134914480223CDE9003200238022FEF7F7
:101A7000ADFB03B0F0BD104F104E3846FDF78EFCA5
:101A80003046FDF78BFC0E4B1F600E4B2A46102193
:101A900003201E60FDF7CEFC20600028DBD00A4941
:101AA000FEF708FBD7E700BFD82E0020DC2E002071
:101AB0000047060019180200AC2E0020C02E00209E
:101AC000A42E0020A82E0020F84606002DE9F04F95
:101AD000074683B02C20884616461D4600F07AF84B
:101AE000044688B1DFF8709000F0F4F9D9F80020CE
:101AF00072B100F0F9F90C9B2760C4E906862562F3
:101B00006362201DFDF756FC204603B0BDE8F08F50
:101B1000DFF848B0DFF848A001925846FDF73EFCD8
:101B20005046FDF73BFC094B019AC3F800B0084B47
:101B300010210320C3F800A0FDF77CFCC9F80000C9
:101B40000028D6D00349FEF7B5FAD2E7A42E00202C
:101B5000A82E0020F8460600D82E0020AC2E00202B
:101B6000C02E002030B5144D2C6885B0CCB10529AD
:101B7000CDE9001202900BDCFFF742FB022813D0E4
:101B8000002328681A466946FDF7C2FC05B030BD3F
:101B90009C466246002369462046FDF797FE05B045
:101BA00030BD204605B030BD2868089A002369463C
:101BB000FDF7AEFC05B030BDD82E002010B50446B0
:101BC00082B000F087F9206A019000F08DF9019849
:101BD00002B010BD2DE9F0410546FEF765FE46490D
:101BE0000E68002E3ED0454B1F683D4234D175B380
:101BF00005F108046B071CBF24F0070408345CB32C
:101C0000DFF808E1DEF800C0A44525D33C480368AE
:101C100003E01A6822B1184613465968A142F8D366
:101C2000B34219D01D460A1B55F8088BC0F8008036
:101C3000102A39D833480468ACEB0102A242CEF82E
:101C4000002038BF026039430022C3E90021FEF7BB
:101C5000E7FE2846BDE8F0810025FEF7E1FE2846B4
:101C6000BDE8F081284A254C500714BFD31D134608
:101C700002F54842A2F1080222F0070618BF23F03D
:101C80000703204A0E601846F31A13601F4A1C49C6
:101C900013604FF00047002208604A602760C6E9E1
:101CA0000022C0E90063A0E719194A60144A5C6089
:101CB000144612689142FBD8606804EB0008414565
:101CC0000BD0D1F8048001EB080082420CD00A60EE
:101CD0008C4218BF21605968ACE7496800EB0108E5
:101CE000C4F804802146EEE7B242F0D05068126892
:101CF0000A6040444860EBE7E02E0020E4F6002054
:101D0000F0F60020ECF60020E42E0020E8F600209B
:101D100040B11F4A50F8043C1268134202D050F8F8
:101D2000081C01B1704710B523EA020382B040F8E5
:101D3000043C184C0190FEF7B7FD0198226850F85A
:101D4000041C154B0A44083822601A461B68984246
:101D5000FBD8546802EB040C604515D04418A3422C
:101D600008D00360824218BF106002B0BDE8104086
:101D7000FEF756BE094C2468A342F2D0D3E90034E2
:101D80002144C0E90031EDE7214451601046E5E708
:101D9000E4F60020E8F60020F0F60020E02E002017
:101DA000014B1868704700BFE8F60020014B186827
:101DB000704700BFECF600200748006880F30888F1
:101DC00062B661B6BFF34F8FBFF36F8F4FF4F07001
:101DD00080F3118800DF00BF00C00100064B1968C6
:101DE0000868B0E8F04F80F30988BFF36F8F4FF0B9
:101DF000000080F311887047782D0020EFF30980F0
:101E0000BFF36F8F144B1A681EF0100F08BF20ED40
:101E1000108A20E9F04F10604DF8043D4FF0A0000B
:101E200080F31188BFF34F8FBFF36F8FFFF738F840
:101E30004FF0000080F3118808BC19680868B0E80A
:101E4000F04F1EF0100F08BFB0EC108A80F3098825
:101E5000BFF36F8F704700BF782D0020A02383F35E
:101E60001188FEE710B44FF08073064C40F8043C34
:101E70006FF0020340E9034140E909325DF8044B89
:101E8000443870475D1E02000F4C08B5E02384F80B
:101E9000223000F06FF80D4B00221A60D4F8883021
:101EA0000B4A43F47003C4F88830536B43F040434B
:101EB0005363236943F010032361FFF77DFFA023E1
:101EC00083F31188FEE700BF00ED00E0F8F6002084
:101ED00000EF00E0A02383F31188024A1368013366
:101EE00013607047F8F60020034A1368013B136043
:101EF0000BB983F311887047F8F6002070B582B0F3
:101F0000EFF31186A02383F31188184B0022D3F836
:101F10000445C3F80021D3F800310193019BFEF77B
:101F2000CBFC201A20F07F4323F0010320F07F45F3
:101F30009BB96C1E6DB10025FEF7D8FC2346054306
:101F4000013C002BF8D125B1094B4FF080525A606B
:101F500040BF86F3118802B070BDFFF751F9022827
:101F6000E7D0FEF7C3FC0546EDE700BF00100140D7
:101F700000ED00E010B5002012F09CFC094B0A496E
:101F800001222024C3F808450220C3F804239A60E4
:101F90001A60E022C3F8440381F811234FF40033A0
:101FA0000B6010BD0010014000E100E0826842B10A
:101FB00010B5436901680446006998470023A3608F
:101FC00010BD70470EB400B582B0039921B104ABC7
:101FD00001AA019300F0AAF802B05DF804EB03B087
:101FE000704700BF2DE9F84F1546A942DDF828805B
:101FF0000B9A0E4683469A46C0F094800B46012702
:10200000B3FBF5F39D4207F10107F9D9574538BFF6
:10201000574612F0010902D1B8F1000F5BD1DBF88D
:102020000810BAF1010F4FF0010406D90AF1FF3A86
:10203000BAF1010F05FB04F4F8D8B6FBF4F39D42A6
:1020400005D805FB04F4B6FBF4F39D42F9D9DFF89B
:10205000D8A008E0AC42B4FBF5F319D3DBF80810C4
:102060001C46B6FBF3F34A1CCBF80820DBF8002033
:102070001AF80300505404FB1366DBE901329A425C
:10208000E8D35846FFF792FFB4FBF5F3AC42E5D234
:10209000B9F1000F16D0B8F1000F13D02024474536
:1020A00008F1FF380ED2DBF80830DBF80020591CAD
:1020B000CBF80810D454DBE901329A4204D2B8F1CB
:1020C000000FECD1BDE8F88F5846FFF76FFFB8F16D
:1020D000000FE4D1F6E793071ED42024DBF80810A4
:1020E000474501F101029CD2DBF80030CBF8082013
:1020F0005C54DBE90131994208F1FF3803D2B8F1B1
:10210000000FEDD18DE75846FFF750FFDBF80810C0
:10211000B8F1000FE4D184E7BAF1000F0CBF30240E
:102120002024DBE7012771E708470600002900F0BB
:102130009D812DE9F04FDFF898940B7885B0064625
:1021400090460C464FF0300A01E0237893B10134F9
:1021500083B1252B15D0B2683168501CB0608B5408
:10216000D6E901319942F0D33046FFF71FFF2378BB
:10217000002BECD1337B002B40F0948005B0BDE800
:10218000F08F0027234614F8012B2D2A63D0302A24
:1021900064D02B2A58D02A2A63D0A2F13001092911
:1021A0004FF000050BD805EB850502EB450513F84C
:1021B000012FA2F130010929A5F13005F3D92E2A0A
:1021C0001C4659D0002301E014F8012F02F0FB0156
:1021D0006829F9D0252A00F03E81583AD1B2202949
:1021E00030D8202A2ED8DFE812F021002D002D0053
:1021F0002D002D002D002D002D002D002D002D0077
:102200009E0063002D002D002D002D0063002D0089
:102210002D002D002D002D002D00B2002D002D00D1
:10222000EF002D0027012D002D002100D8F800001F
:10223000102201680430CDE90057C8F8000030468C
:10224000FFF7D0FE013480E7234614F8012B2D2A36
:1022500047F004079BD147F0010793E747F00207D7
:1022600090E7D8F80020111DC8F8001015685A78BA
:102270002E2A03F10104A5D16278A2F13003092BC3
:1022800004F101044FF00003A0D803EB830302EB39
:10229000430314F8012FA2F130010929A3F13003FF
:1022A000F3D993E7304605B0BDE8F04FFFF77EBEA7
:1022B000D8F80020D2F800B00432C8F800208BEA29
:1022C000EB72A2EBEB72092A40F37E81DFF804C3C4
:1022D000012011466329ACFB02E200F101004FEA44
:1022E000D202F6DC9842024638BF1A460292002D0E
:1022F00040F0BD80B80700F111810025BBF1000F4F
:10230000C0F2F3807A0700F1038107F00302022A8A
:1023100000F01881CDE9005759460A223046FFF7F0
:1023200061FE013411E7D8F80030B26818783168DE
:102330000433C8F80030531CB3608854D6E9013127
:102340009942FFF47FAF3046FFF730FE7AE7D8F8C6
:102350000020B36831681768101D5A1CC8F80000C7
:10236000B26001F803A0D6E90123934280F00A810C
:10237000591C3268B1607821D154D6E901239342C7
:1023800080F0FB800F2F03D93A4612090F2AFCD8A0
:102390004FF0805506E00F2D4FEA15127FF652AF31
:1023A000B36815465A1CB2603268B7FBF5F119F8EC
:1023B0000100D05405FB1177D6E901319942EAD3E7
:1023C0003046FFF7F3FDE6E7D8F800301A1DC8F8ED
:1023D000002017F00107D3F800B069D09BF8000087
:1023E000002800F0F380B1685F46CBF101024B1C7E
:1023F000B36033685854D6E90131994202EB070BB8
:102400001ED217F8010F0028F1D15D457FF61AAFF3
:10241000202702E05D453FF415AFB2683368511CD8
:10242000B1609F54D6E90131994205F1FF35F1D3EE
:102430003046FFF7BBFDEDE7D8F800000A22F8E6CA
:1024400030460292FFF7B2FD17F8010F0028DCD0EA
:10245000B168029ACBE7B3683168581CB060CA54BF
:10246000D6E901319942FFF4EDAE6CE77047BBF15C
:10247000000F01DB7A0700D5013DB80755D4F907F5
:102480003FF53CAF002D3FF438AF20220299A9421E
:10249000BFF434AFB168481CB06030684254D6E92C
:1024A0000101814205F1FF3543D2002DEED124E731
:1024B000BBF1000F03D058461BF07FFD0746BD421D
:1024C00065D9202201E0BD4261D0B1683368481C63
:1024D000B0605A54D6E90131994205F1FF35F2D383
:1024E0003046FFF763FD2022EDE7B1683268481CF3
:1024F000B060CBF1000B2D205054D6E90121914260
:10250000FFF403AF30460393FFF750FD039BFCE657
:10251000B1683268481CB0602B20EDE7002B3FF417
:10252000EDAEF9073FF5EAAEE7E6002B3FF4E6AE85
:10253000A5E730460393FFF739FD039B2022002DCA
:10254000A4D1DAE6002B7FF4E5AE002D3AD0029A52
:10255000AA42BFF4DFAEB1683268481CB06002F82E
:1025600001A0D6E90121914205F1FF35EDD33046B6
:102570000393FFF71BFD039BE7E73046FFF716FDCC
:10258000B368FFE63046FFF711FDB368F0E69BF84D
:102590000030002B3FF456AEB1683268481CB06082
:1025A0005354D6E90131994204D21BF8013F002B64
:1025B000F3D147E63046FFF7F9FC1BF8013F002B4B
:1025C000EAD13FE60025A5E601208BE683461CE71D
:1025D00008470600CDCCCCCC2DE9F04FDFF8A09118
:1025E00000EB400609EBC60683B0F76A012F804670
:1025F0008B4692464FEA400407D0022F49D03FB3A2
:102600000027384603B0BDE8F08FB76A756AAF425D
:102610007AD9013F7F1B366A574528BF5746721B40
:1026200097427BD208F1010303EB430309EBC30399
:10263000594658683A4628441BF01AFC444409EBB2
:10264000C4093D443846C9F8245003B0BDE8F08FB2
:10265000B36A756AAB429CBF326A9B18013B5B1B35
:102660009A45CED8044409EBC40400F10108266A57
:10267000771B08EB4808BA4509EBC8096ED2D9F8B0
:1026800004005246284455441BF0F2FB574665624D
:10269000B7E700F1010808EB4808756A4FEAC80877
:1026A0000027B26AAA4202F1FF3422D9621B346ABF
:1026B000524509EB0801A4EB050428BF5246944299
:1026C000486828BF14462844594622461BF0D0FBD0
:1026D000336A25449D42AAEB040A2744A3440DD043
:1026E0007562BAF1000F8CD0B26AAA4202F1FF34CF
:1026F000DCD8346A2244013A521BD9E700257562BE
:10270000BAF1000FCDD17CE7366A3744013F7F1B19
:10271000574528BF5746721B974283D308F1010AD9
:102720000AEB4A0A09EBCA0A5946DAF80400019290
:1027300028441BF09DFBBE1B019ADAF804003544C7
:102740000BEB02012A461BF093FB444409EBC4093E
:102750003846C9F8245003B0BDE8F08FD9F804001A
:10276000284455443A46AD1B1BF082FB0BEB070196
:10277000D9F804002A461BF07BFB5746656240E708
:10278000FCF600201348144B1449006810B4C3F839
:10279000070003C918600220114C9980C3E90400A6
:1027A0001048C3E906404FF4007018620E484FF01D
:1027B000200C0022C3E9124083F806C010209A6260
:1027C0005DF8044B5A62DA6218659A655A65DA65F3
:1027D000704700BF24470600FCF60020284706008B
:1027E0001847060084F7002074F700202DE9F04F09
:1027F000ADF61C0D01220DF5836B0023069203221A
:10280000CBF8043006A90DF214451346580083EAAC
:10281000000412F0800F41F8043F84F01B0240F0E6
:102820002481A9422246E3B2F0D1032301221946B2
:10283000580080EA030411F0800F4BF8232084F045
:102840001B0140F00B810132B2F5807F2146E3B2DB
:10285000EED18A4B02220120C3E9000204210822A2
:10286000C3E9021210242022C3E904424025802239
:10287000C3E9065282491B263622C3E90862632354
:10288000804E0B70002386F863305D460C46884608
:1028900055F8043F06AAC3F1FF0352F82310CA11EA
:1028A00042EA41025FFA82FEC2F3C01242EA4E02DD
:1028B0005FFA82FCC2F3C01242EA4C02D7B2C2F302
:1028C000C01343EA4703DBB24B4083EA0E0383EABB
:1028D0000C037B4083F0630304F8013FF0540130A4
:1028E000B0F5807FD4D1DBF838300293DBF82430A8
:1028F000654D0393654B2B6003F13E43644C654883
:10290000654A664E03F5C5435F33236003F5C5038F
:1029100003F5BD433E33036003F1C54303F5BD0337
:1029200003F578531360DBF834300493DBF82C3074
:102930000593414611F8017F17F0800F14BF4FF047
:102940001B0C4FF0000C8CEA470C3B045FFA8CFC2C
:1029500043EA072383EA0C0387EA0C0743EA076389
:102960004FEA336745F8043F44F8047F8E424FEA4C
:1029700033474FEA332340F8047F42F8043FD9D16C
:10298000474E484CDFF82C81DFF82CE1464F474D8D
:10299000019658E05BF82320049B0399059ED31809
:1029A000501885FB031C02990CEB030A11443244B6
:1029B00085FB006C0CEB00094FEAE37CCCEBEA1CD6
:1029C000CCEB0C2CA3EB0C034FEAE07CCCEBE91C2A
:1029D00006AECCEB0C2CA0EB0C0056F8233056F8CE
:1029E00020001B0483EA002385FB016000EB010C3F
:1029F000C817C0EBEC10C0EB0020091A06A850F86D
:102A000021104B4085FB02018818D117C1EBE01162
:102A1000C1EB0121521A06A951F8222083EA026370
:102A20004FEA33624EF8042F4FEA334247F8042F3F
:102A300048F8043F4FEA3323019A42F8043F1C4B05
:102A40000192A34216D014F8013F002BA2D148F8FE
:102A5000043F4EF8043F47F8043FEDE70132B2F57A
:102A6000807FCBB27FF4E4AEF3E6A942D3B27FF429
:102A7000CDAEDAE60DF61C0DBDE8F08F840A01201C
:102A800084F90020AC0A012084FA0020C66363A503
:102A900084FE0020840201208406012083FA0020A5
:102AA000A8170120AB0A0120A81301208180808093
:102AB000AB0B0120A80B0120A80F0120F0B5CB68BB
:102AC000D1F800C04C68D1F808E0DA0FD2001CEB56
:102AD0000C0C4FF08701C2F1080241FA02F244EBFC
:102AE00004011EEB0E0E82EA0C0C81EAE2724EEA41
:102AF000D47143EB030E00231E464FEA1C2444EA24
:102B000002646CF307060F0A64F30F261D461C4689
:102B100047EA0E6761F3070367F30F234FEA1C4789
:102B200047EA02474FEA1C6C4CEA022C67F317464F
:102B30006CF31F6662F307050660160A66F30F253D
:102B40000E0C46EA0E46090E66F3174341EA0E21C3
:102B500061F31F636EF3070483604FEA1E2363F380
:102B60000F24130C63F317454FEA1E4363F3174416
:102B7000120E4FEA1E6362F31F6563F31F64456024
:102B8000C460F0BD4FF48C7200211BF09AB900BFF5
:102B900018B14FF48C7107F0B1B8704710B54FF40D
:102BA0008C72002104461BF08CF94FF48C72A01833
:102BB0000021BDE810401BF084B900BF60B110B522
:102BC0004FF48C71044607F099F84FF48C7160183B
:102BD000BDE8104007F092B8704700BF2DE9F04FF4
:102BE000C02A83B01546804609D0B2F5807F46D012
:102BF000802A31D06FF01F0003B0BDE8F08F0C23A6
:102C00000360C84C23686BB308F10804C8F804409B
:102C10004FEA551CA4F1040E00228B784F780E78F1
:102C2000CD781B0443EA07233343013243EA0563AB
:102C300094454EF8043F01F10401EED8D8F8003075
:102C40000C2B1FD00E2B00F073810A2B00F0C181DA
:102C5000002003B0BDE8F08FB24C0A230360236864
:102C6000002BD1D10191FFF7C1FD0123236008F1B1
:102C700008040199C8F804404FEA551CCAE70E231E
:102C80000360BEE76169A84ADFF8A0C220686368F4
:102C9000D4F808E0D4F810A0DCF80470C1F30725DC
:102CA00012F80580DCF800504540080E85EA08055A
:102CB000105C85EA0045C8B2105C85EA0065C1F386
:102CC0000740105C85EA00256B40E0688EEA030649
:102CD0007040C4E908608AEA00067140C4E90653FE
:102CE000C4E90A61C1F307267D40965DDCF80870EF
:102CF00075400E0E965D85EA0645CEB2965D85EA74
:102D00000665C1F30746965D85EA06258EEA050E3F
:102D10008AEA0E066B4081EA0608C4E90C5380EA91
:102D20000E09C4F83C90C8F30729C4F838E02664BB
:102D3000C4F8448012F809907D4089EA05054FEAFD
:102D4000186912F8099085EA09455FFA88F9C8F30D
:102D5000074812F8099012F8088085EA096585EAA3
:102D600008256B4058404640C4E91253A66581EAE5
:102D700000088EEA03062665C8F307266065C4F8D6
:102D80005C8012F80690DCF80C606E404FEA186523
:102D900089EA0606555D86EA05465FFA88F5555DBF
:102DA00086EA0566C8F30745555D86EA05268AEA80
:102DB000060788EA07088EEA060E7340C4E918631E
:102DC000C4E91C7880EA0E05E566C8F30725C4F857
:102DD00068E012F80590DCF8105075404FEA18666C
:102DE00089EA0505965D85EA06455FFA88F6C8F327
:102DF0000748965D85EA066512F8086085EA0625AB
:102E00006B4058408EEA03065940C4E91E53C4F88B
:102E1000806087EA0006C4F88860C1F30726C4F81A
:102E20008400C4F88C1012F80690DCF81460754029
:102E300089EA05090D0E555D89EA0549CDB2555D52
:102E400089EA0569C1F30745565D89EA06298EEAD4
:102E5000090587EA050E83EA0903C4E9249381EA98
:102E60000E0880EA0506C4F89C60C8F30726C4F87B
:102E70009850C4F8A0E0C4F8A48012F806A0DCF8CA
:102E80001860DCF81CC089EA06098AEA09064FEADC
:102E9000186912F8099086EA09465FFA88F9C8F3BA
:102EA000074812F8099012F8088086EA096686EA4F
:102EB0000826734058404140C4F8A86086EA0C06D2
:102EC00085EA030CC4F8B0C08EEA000EC1F3072CEB
:102ED000C4F8AC30C4F8B400C4F8BC10C4F8B8E00E
:102EE00012F80CC08CEA06064FEA116C12F80CC0FE
:102EF00086EA0C465FFA81FC12F80CC086EA0C6682
:102F0000C1F3074C12F80C2086EA022255405740C4
:102F1000534068407940C4E93023C4E93250C4E9E1
:102F2000347195E6AC1B012084F90020840A01204D
:102F3000DFF82483E1692568C54BD4E905CED4E9DF
:102F4000030AD4E9016708F11C09C1F3072258F804
:102F500004BF9A5C85EA0B0555400A0EC1459A5C90
:102F600085EA0245CAB29A5C85EA0265C1F3074266
:102F70009A5C85EA022586EA050687EA060780EA62
:102F80000700C4E90856C4E90A70C2B29A5C82EA32
:102F90000A024FEA106A13F80AA082EA0A62C0F332
:102FA000072A13F80AA082EA0A22C0F3074A13F894
:102FB0000AA082EA0A4A8CEA0A0C8EEA0C0E81EA1E
:102FC0000E01C4E90CACC4E90EE104F12004BCD14B
:102FD0003EE6E3689E499F4E62683568D4F808C0B3
:102FE000C3F307200F5C206845406F401D0E7068DA
:102FF0004D5D87EA0547DDB24D5D87EA0567C3F39E
:1030000007454D5D87EA05277A4082EA0C056B404B
:10301000C4E90472C4E90653C3F3072547404D5D74
:103020007D401F0ECF5D85EA0745DFB2CF5D85EAA3
:103030000765C3F30747CF5D85EA07258CEA0500DE
:103040006A40C4E9085280EA030ECEF30727A06263
:10305000C4F82CE011F807C0B7687D404FEA1E673E
:103060008CEA050511F807C085EA0C4C5FFA8EF56D
:10307000CEF3074E4D5D8CEA056C11F80E508CEACC
:1030800005277A405340C4E90C7282EA0005A56323
:10309000C3F30725E36311F805C0F5684FEA136E23
:1030A0006F408CEA070511F80E7085EA0745DFB21C
:1030B000CF5D85EA0765C3F30747CF5D85EA07253E
:1030C00068406A40C4E9105283EA000ECEF3072735
:1030D000A064C4F84CE011F807C037697D404FEA9E
:1030E0001E678CEA050511F807C085EA0C4C5FFAEB
:1030F0008EF5CEF3074E4D5D8CEA056C11F80E503F
:103100008CEA05277A40C4E91472534080EA02052C
:10311000A565C3F30725E36511F805C075696F4020
:103120008CEA07051F0ECF5D85EA0745DFB2CF5D4C
:1031300085EA0765C3F30747CF5D85EA0725684041
:103140006A40C4E9185283EA000ECEF30727A0664E
:10315000C4F86CE011F807C0B7697D404FEA1E67FC
:103160008CEA050511F807C085EA0C4C5FFA8EF56C
:10317000CEF3074E4D5D8CEA056C11F80E508CEACB
:1031800005277A40534080EA0205C4E91C72A5670E
:10319000C3F30725E36711F805C0F5696F408CEAB2
:1031A00007051F0ECF5D85EA0745DFB2CF5D85EAD3
:1031B0000765C3F30747CF5D85EA072568406A4086
:1031C000C4E9205283EA000CCCF30727C4F8880036
:1031D000C4F88CC011F807E0376A766A7D404FEA80
:1031E0001C6785EA0E05CF5D85EA07455FFA8CF717
:1031F000CCF3074CCF5D85EA076511F80C7085EAC2
:1032000007256A405340C4F89050754080EA020692
:10321000C4F89860C3F30726C4F89420C4F89C301F
:103220008E5D75401E0E8E5D85EA0645DEB28E5DB2
:1032300085EA0665C3F30746895D85EA01214840B2
:103240004A404340C4E92812C4E92A0300E500BF0C
:1032500084F90020840A0120800A01202DE9F04F22
:10326000C9B0044616460D464FF48C72002102A8E0
:103270001AF027FE04F1080363603246294602A8CB
:10328000FFF7ACFC0090002840F0C380DDF808E0B8
:103290000399C4F800E04FEA0E130EF1FF32CB5849
:1032A000A36001EB0E11002A4B68E3608B68236179
:1032B000CB680192636104F118089446A1F11009EA
:1032C00040F3978004F12802564F574B574E584D04
:1032D000584C203908695FFA80FA103213F80AA0B6
:1032E00057F82AB04FEA106A103913F80AA056F8B6
:1032F0002AA08BEA0A0AC0F3072BC0F3074013F891
:103300000BB0185C55F82BB054F820008AEA0B0A71
:103310008AEA000042F8200C486A5FFA80FABCF1A1
:10332000010C13F80AA057F82AB04FEA106A13F8F4
:103330000AA056F82AA08BEA0A0AC0F3072BC0F3AA
:10334000074013F80BB0185C55F82BB054F8200068
:103350008AEA0B0A8AEA000042F81C0C886A5FFAC3
:1033600080FA13F80AA057F82AB04FEA106A13F847
:103370000AA056F82AA08BEA0A0AC0F3072BC0F36A
:10338000074013F80BB0185C55F82BB054F8200028
:103390008AEA0B0A8AEA000042F8180CC86A5FFA47
:1033A00080FA13F80AB04FEA106A13F80AA057F827
:1033B0002BB056F82AA08BEA0A0AC0F3072BC0F3F9
:1033C000074013F80BB0185C55F82BB054F82000E8
:1033D0008AEA0B0A8AEA000042F8140C7FF47AAFFA
:1033E000019BCEEB0E7E09EB0E1908EB031809F1D9
:1033F0001009D9F80030C8F80030D9F80430C8F8FE
:103400000430D9F80830C8F80830D9F80C30C8F8BA
:103410000C3002A84FF48C7106F070FC009849B093
:10342000BDE8F08FAC0B012084F90020AC1701201F
:10343000AC0F0120AC13012030B51346B3F5807FEB
:103440000D4683B004464FEA52024FEA131102D0F0
:10345000B3F5007F10D1294404F58C700192FFF779
:10346000BDFB08B103B030BD019A2946204603B028
:10347000BDE83040FFF7B2BB6FF01F00F2E700BFBE
:1034800030B51346B3F5807F0D4683B004464FEA4E
:1034900052024FEA131102D0B3F5007F10D1294434
:1034A00004F58C700192FFF799FB08B103B030BDB1
:1034B000019A2946204603B0BDE83040FFF7CEBE52
:1034C0006FF01F00F2E700BF2DE9F04F446800687D
:1034D0000B684D688FB04010461E0693CDE9042658
:1034E000226888685340CDE90635CA68616869403A
:1034F000CDE90710A5686840CDE90802E568002E0F
:1035000082EA050204F11005CDE90265099240F353
:10351000D581DFF8A0B3DFF8A0A3E34EE34D01931C
:1035200004F1300CD6465F46DDF804905CF8203C90
:103530005FFA89F44FEA126856F8244057F8288059
:103540005C4084EA0804C1F307284FEA19695EF871
:10355000288057F8299084EA0804C0F307485FFAE6
:1035600080FA55F8288084EA08045FFA81F80A9402
:103570005CF81C3C56F8288088EA030888EA0908A9
:10358000C0F30729019B5EF8299088EA0908C2F375
:1035900007490CF1200C55F8299088EA09084FEAF0
:1035A000106956F82A0057F829A0CDF82C804FEA68
:1035B0001169C1F3074157F8299055F821B05CF81B
:1035C000381C4840C2F3072180EA09005EF8211048
:1035D0004840C3F30741D2B255F8211056F82220D3
:1035E0004840C3F307230C905EF823105CF8343C8A
:1035F00082EA030989EA0A0989EA010989EA0B09C9
:10360000E3B24FEA196256F8233057F82220CDF87A
:1036100034905340C8F30722C0F3072A5EF8221003
:103620005CF8302C5340C0F307424B4055F8222041
:1036300053405FFA88F20193069356F82210220E47
:1036400057F8222051405CF82C2C51405EF82A207B
:103650005140C9F3074255F822205140C2B2000E32
:1036600056F8222057F820B007914FEA1860C8F3A7
:10367000074857F820005CF8283C82EA000AC9F3A2
:1036800007205FFA89F955F8282056F829805EF856
:103690002000C4F307498AEA030A55F82990029BDF
:1036A0008AEA0000C4F3072480EA090008905EF863
:1036B00024905CF8244C88EA0B0888EA040484EA25
:1036C00009046240013B099202937FF42DAF059CEF
:1036D000019BBB46039F07EB4414F24603945FFA39
:1036E00083FC4FEA126E56F82CC05BF82EE0276878
:1036F0008CEA0E0CC1F3072E8CEA070C5AF82EE068
:103700008CEA0E0CC0F3074E5FFA80F955F82EE0F4
:103710008CEA0E0C5FFA81FECDF828C056F82E8098
:1037200067684FEA136E5BF82EE088EA0E0EC0F36E
:1037300007288EEA070E5AF828808EEA080EC2F390
:10374000074855F828808EEA080E4FEA106856F8A8
:103750002900CDF82CE04FEA1169C1F307415BF86D
:1037600029705BF82880C2F30729D2B2784055F857
:10377000217056F82210A2685AF829605040C3F30D
:103780000742704055F82220C3F3072350400C90A5
:103790005AF82320E36881EA0801594051407940F2
:1037A000434B0D9126465FFA8CF20C0E9A5C1D5D20
:1037B00034696240CEF3072482EA05621C5D039DF2
:1037C00082EA0422C0F307444FEA1C691C5D82EAC6
:1037D00004425FFA8EF406921C5D6D694FEA106A2E
:1037E0005FFA80F86C40C0F3072013F8095013F813
:1037F000088013F80A9084EA05641D5C03984FEA78
:103800001E6680699E5D88EA0000CFB280EA066687
:103810000398DF5DC069CEF3074E4740C1F3072030
:1038200084EA052413F80E50C1F3074E195C86EAAA
:10383000012613F80E1084EA0144CCF3072187EA2D
:103840000969CCF3074C5F5C13F80C10079489EA04
:10385000072383EA0543049D100A2A706870100C40
:10386000120EEA70220A86EA01416A71220CAA71DC
:103870000A0A2C716A72240E0A0CCDE90813297207
:103880002B73EC71AA721C0A1A0C090E1B0EA8707D
:10389000E97206A86C73AA73EB73202106F02EFA66
:1038A00000200FB0BDE8F08F84FA002084020120D0
:1038B00084F900208406012084FE0020034EDFF8F6
:1038C00014B0DFF814A0024D039C08E784FA00202E
:1038D000840201208406012084FE00202DE9F04F9F
:1038E000446800680B688DB040100493461E206841
:1038F000CDE901264A684340CDE90432656888680D
:10390000C9686A40CDE90520A5686840CDE906018F
:10391000E568002E81EA0501079104F1100B40F3E0
:10392000EE81DFF8C4A3EC4FEC4DCDF80CB0B646F9
:10393000EB4E009304F1300CF3465446DDF800A042
:103940005CF8203C5FFA8AFE4FEA126857F82EE0D6
:1039500054F828808EEA030E8EEA080EC1F3072879
:103960004FEA106956F8288054F829908EEA080E1C
:10397000C0F30748BBF1010B55F828808EEA080E0A
:103980005FFA82F8CDF820E05CF81C3C57F82880FC
:1039900088EA030888EA0908CAF307295FFA80FA67
:1039A00056F8299088EA0908C1F307490CF1200C60
:1039B00055F8299088EA0908C0F3072957F82A0022
:1039C000CDF824804FEA116AC9B254F82A3057F86A
:1039D00021A05CF8381C56F8299080EA0100C2F357
:1039E000072180EA030056F82110009B80EA0100BD
:1039F000C3F307414FEA136355F8211080EA010031
:103A00000A9054F823105CF8343CC2F307428AEA67
:103A1000030355F8222081EA03015FFA8EF381EA5D
:103A2000090181EA020157F823200B914FEA18633C
:103A3000CEF3072A54F8233083EA0203C1F30722A6
:103A400056F822905CF8302C83EA0203C0F3074258
:103A500083EA090355F8222083EA02035FFA88F219
:103A60000093049357F822904FEA106254F82220F2
:103A700089EA02095CF82C2C89EA020256F82A909D
:103A800082EA0902C1F307495FFA80FA55F82990E2
:103A900082EA0902C0F3072957F82A0005924FEA83
:103AA000116A5CF8283C54F82AA056F8299080EA5C
:103AB0000A0AC8F307208AEA030A56F820008AEAAD
:103AC0000000CEF3074AC9B255F82AA057F82110D2
:103AD0004FEA1E6E80EA0A0054F82EE006905CF869
:103AE000243CC8F3074881EA0E0155F8288081EA92
:103AF000030181EA090181EA080107917FF41EAF01
:103B0000DDF80CB0009BA246029C0BEB441B5FFA55
:103B100083FC4FEA126E57F82CC05AF82EE0DBF8FF
:103B200000408CEA0E0CC1F3072E8CEA040C56F808
:103B30002EE08CEA0E0CC0F3074E4FEA116955F8DF
:103B40002EE08CEA0E0C5FFA82FECDF820C057F80A
:103B50002E80DBF804404FEA106E5AF82EE088EA17
:103B60000E0EC3F307288EEA040E56F828808EEA5C
:103B7000080EC1F30748C9B255F8288057F821103C
:103B80008EEA080E5FFA80F8C0F3072057F8288005
:103B90005AF82970CDF824E088EA0708C2F307270D
:103BA000C2F3074256F8200056F8277055F82260F5
:103BB000DBF8082088EA0208C3F307421B0E55F819
:103BC00022505AF8233088EA07077D400A95594069
:103BD000DBF80C305FFA8CF25940424B48407040A1
:103BE000995C0B904FEA1E624FEA156A9C5CDBF809
:103BF00010205140C0F3072281EA04619A5CDBF88F
:103C0000144081EA0221C5F307425FFA85F99A5C04
:103C100081EA02415FFA8EF204919A5C5FFA80F8C1
:103C2000070E6240C0F3074013F80A40DF5D13F847
:103C3000088082EA046213F8094013F80090DBF868
:103C40001800604080EA0767DBF81C0088EA00087B
:103C5000CCF307204FEA1C661C5C9E5D82EA0422BE
:103C6000CEF30724CCF3074CC5F307251C5D13F8EE
:103C70000C005D5DCEF3074E87EA042788EA0666EE
:103C8000019C86EA052613F80E50217087EA00434E
:103C9000080A82EA09426070080C090EE170110AF4
:103CA00086EA05460592227161714FEA1269110C8C
:103CB0001A0ACDE906362372A1716272310A1A0C12
:103CC0001B0EA070A272E372320C330E04A8617353
:103CD0002021A273267309E0AC0B0120AC13012054
:103CE000AC0F0120AC0A0120AC17012084F807902A
:103CF000E37306F003F800200DB0BDE8F08F034F2A
:103D0000DFF814A0024E034D01E700BFAC0B012009
:103D1000AC0F0120AC130120AC1701208C46BCF184
:103D2000010F11461A4601D0FFF7D8BDFFF7CCBBF3
:103D300012F00F0F40F03E812DE9F043074685B0A9
:103D400089461D46002900F09480002A00F08D80ED
:103D50000C9B0D9C03F1100604EB0208297816F861
:103D6000103C4B402370687816F80F3C434063705A
:103D700095F802C016F80E3C83EA0C03A37095F880
:103D800003C016F80D3C83EA0C03E37095F804C0F9
:103D900016F80C3C83EA0C03237195F805C016F85D
:103DA0000B3C83EA0C03637195F806C016F80A3CD5
:103DB00083EA0C03A37195F807C016F8093C83EA5F
:103DC0000C03E37195F808C016F8083C83EA0C036D
:103DD000237295F809C016F8073C83EA0C03637256
:103DE00095F80AC016F8063C83EA0C03A37295F80E
:103DF0000BC016F8053C83EA0C03E37295F80CC07F
:103E000016F8043C83EA0C03237395F80DC016F8EA
:103E1000033C83EA0C03637395F80EC016F8023C6A
:103E200083EA0C03A37316F8013C95F80FC0B9F1AF
:103E3000010F83EA0C03224621463846E37300F063
:103E40009E801034FFF74AFD54F8101C54F80C2CD7
:103E500054F8083C54F8040CE860444529606A6052
:103E6000AB6006F110067FF479AF002005B0BDE825
:103E7000F083002AF9D0DDE90C6303F1100406EBAE
:103E8000020830687168B268F368EC46ACE80F006D
:103E9000A4F1100231463846FFF720FD2B7814F8C4
:103EA000101C14F80F2C4B4004F8103C697814F8DF
:103EB0000E3C4A4004F80F2CA97814F80D2C4B4006
:103EC00004F80E3CE97814F80C3C4A4004F80D2C38
:103ED000297914F80B2C4B4004F80C3C697914F840
:103EE0000A3C4A4004F80B2CA97914F8092C4B40E1
:103EF00004F80A3CE97914F8083C4A4004F8092C13
:103F0000297A14F8072C4B4004F8083C697A14F815
:103F1000063C4A4004F8072CAA7A534004F8063CB1
:103F2000E97A14F8052C14F8043C14F801EC4A4022
:103F300004F8052C297B14F8032C4B4004F8043CAE
:103F4000697B14F8023C4A4004F8032CAA7B5340D6
:103F500004F8023CEB7BEC468EEA030EBCE80F0053
:103F60001036464504F801EC04F11004286069603D
:103F7000AA60EB6085D1002005B0BDE8F083224641
:103F800021463846FFF7A0FA103454F8100C54F8C4
:103F90000C1C54F8082C54F8043CEB604445286091
:103FA0006960AA6006F110067FF4D8AE002005B063
:103FB000BDE8F0836FF02100704700BF2DE9F04F9E
:103FC00091B0894602911946DC4B03921446103A8F
:103FD0009A4200F2F4820DF110088346424600F541
:103FE0008C70FFF771FA0646002840F0F3811B9BA6
:103FF00003F110051A9B270904F00F0A013F03F192
:104000001004CDF800A0009B1BB159EA070300F093
:10401000E9819DF8102014F8103C019453408DF86C
:1040200030309DF8112014F80F3C53408DF831309A
:104030009DF8122014F80E3C53408DF832309DF854
:10404000132014F80D3C53408DF833309DF81420A4
:1040500014F80C3C53408DF834309DF8152014F8BA
:104060000B3C53408DF835309DF8162014F80A3C6F
:1040700053408DF836309DF8172014F8093C534012
:104080008DF837309DF8182014F8083C53408DF80F
:1040900038309DF8192014F8073C53408DF839301A
:1040A00014F8063C9DF81A2053408DF83A309DF8DC
:1040B0001B2014F8053C53408DF83B309DF81C2024
:1040C00014F8043C53408DF83C309DF81D2014F842
:1040D000033C53408DF83D309DF81E2014F8023CFF
:1040E00053408DF83E309DF81F2014F8013CB9F183
:1040F000010F83EA02030CAA8DF83F30114658469F
:1041000000F06C81FFF7EAFB0646002E40F062816A
:104110009DF810109DF830204A4005F8102C9DF8AD
:1041200011109DF831204A4005F80F2C9DF812100F
:104130009DF832204A4005F80E2C9DF813109DF88A
:1041400033204A4005F80D2C9DF814109DF83420BA
:104150004A4005F80C2C9DF815109DF835204A4072
:1041600005F80B2C9DF816109DF836204A4005F8EE
:104170000A2C9DF817109DF837204A4005F8092CA5
:104180009DF818109DF838204A4005F8082C9DF835
:1041900019109DF839204A4005F8072C9DF81A108F
:1041A0009DF83A204A4005F8062C9DF81B109DF812
:1041B0003B204A4005F8052C9DF81C109DF83C203A
:1041C0004A4005F8042C9DF81D109DF83D204A40FA
:1041D00005F8032C9DF81E109DF83E204A4005F876
:1041E000022C9DF81F109DF83F204A4005F8012C35
:1041F000013F41464046FEF761FC7B1CAA4604F1A4
:10420000100405F110057FF4FEAED146DDF800A0E4
:10421000BAF1000F00F0DE80029B0BB90DF120080F
:10422000019B09F10302D21A062AA9F1100040F2FB
:10423000E8800AF1FF32032A40F2E38059F8102C9B
:10424000C9F80020D8F800101A684A404FEA9A01CD
:1042500001290C9214D059F80C2CC9F804205A6882
:10426000D8F80440032982EA04020D9208D159F8D3
:10427000082CC9F808209A68D8F808104A400E920D
:10428000039B03F00C0292452AD0815C09F80210CE
:10429000019B18F80240995C614002F140046C44B3
:1042A00004F8101C511C8A451AD9445C09F80140D5
:1042B00018F801505C5C4031023269446C40924510
:1042C00001F8104C0CD9815C09F8021018F80210A2
:1042D0009C5C02F140030DEB0302614002F8101CEC
:1042E000CAF10F02022ACAF1100129D9AAF110025B
:1042F00058F80A5059F802400CAB4FEA910C6C4048
:10430000BCF1010F43F80A404A4408EB0A0703EBEB
:104310000A050CD05468D7F804E0BCF1030F84EA16
:104320000E046C6003D19268BC686240AA6021F000
:1043300003028A4292442CD002E000BFF0FFFF004B
:1043400010F80A1018F80A200AF140034A400DEB51
:104350000301BAF10F0F01F8102C0AF1010218D075
:1043600018F80210845C0AF141030DEB030261406E
:10437000BAF10E0F02F8101C0AF1020209D0805C9B
:1043800018F802100AF142030DEB0302414002F853
:10439000101C029B0CAA012B584611462CD0FFF78B
:1043A0009DFA60BB0C99D8F80020D8F804004A4068
:1043B00049F8102C0D9AD8F80810504049F80C0C08
:1043C0000E98D8F80C2041400F9849F8081C42403C
:1043D00049F8042C304611B0BDE8F08FFFF774F8AF
:1043E000064692E698E80F0008AE86E80F004146C0
:1043F0004046FEF763FB0CE6FFF766F8D1E706469A
:10440000E8E719F8102C019B89F80020197898F832
:104410000020BAF1010F82EA01028DF830203FF44A
:104420005FAF19F80F2C89F80120597898F801200E
:10443000BAF1020F82EA01028DF831203FF450AF49
:1044400019F80E2C89F80220997898F80220BAF110
:10445000030F82EA01028DF832203FF441AF19F8D0
:104460000D2C89F80320DA7898F80310BAF1040FBC
:1044700082EA01028DF833203FF432AF19F80C2C98
:1044800089F804201A7998F80410BAF1050F82EA25
:1044900001028DF834203FF423AF19F80B2C89F872
:1044A00005205A7998F80510BAF1060F82EA010240
:1044B0008DF835203FF414AF19F80A2C89F806203E
:1044C0009A7998F80610BAF1070F82EA01028DF87E
:1044D00036203FF405AF19F8092C89F80720DA795E
:1044E00098F80710BAF1080F82EA01028DF8372018
:1044F0003FF4F6AE19F8082C89F808201A7A98F8D3
:104500000810BAF1090F82EA01028DF838203FF451
:10451000E7AE19F8072C89F809205A7A98F809109B
:10452000BAF10A0F82EA01028DF839203FF4D8AEC1
:1045300019F8062C89F80A209A7A98F80A10BAF124
:104540000B0F82EA01028DF83A203FF4C9AE19F848
:10455000052C89F80B20DA7A98F80B10BAF10C0FB9
:1045600082EA01028DF83B203FF4BAAE19F8042C20
:1045700089F80C201A7B98F80C10BAF10D0F82EA1A
:1045800001028DF83C203FF4DBAE19F8032C89F8CA
:104590000D205A7B98F80D10BAF10F0F82EA010234
:1045A0008DF83D207FF4CCAE19F8022C89F80E204E
:1045B000997B98F80E204A408DF83E20C0E66FF0B7
:1045C000210607E72DE9F0471C68089D0F2CDDE95F
:1045D00009674DD89946824629BBFAB106EB020815
:1045E0002A46294650466CB9FEF76EFF16F8012B95
:1045F0002B78464583EA020307F8013B4FF001049C
:104600002A7033D02B5D16F8012B611C53404645B0
:1046100007F8013B2A5501F00F04E1D1C9F8004029
:104620000020BDE8F08706EB0208002AF6D02A46F3
:10463000294650466CB9FEF747FF16F8013B2A7829
:10464000464583EA020307F8013B4FF001042B7053
:104650000CD02A5D16F8011B631C4A40464507F83A
:10466000012B2A5503F00F04E1D1D7E70124D5E748
:104670006FF02000D5E700BF2DE9F0471468089ED1
:10468000099D0F2C20D8904681B181469A466F181B
:104690008CB11AF804C016F8010B8CEA000C05F86E
:1046A00001CB0134AF4204F00F04F1D1C8F800404F
:1046B0000020BDE8F087524651464846FEF704FF09
:1046C0000028E6D0BDE8F0876FF02000F1E700BFDA
:1046D0002DE9F84F1468DDF828B00F2CDDE90B67E1
:1046E0007BD8914689B182461D4606EB01088CB104
:1046F0001BF804C016F8013B01348CEA030C464554
:1047000007F801CB04F00F04F1D1C9F800400020F4
:10471000BDE8F88F5A4629465046FEF7D5FEEB7B9A
:104720000133DBB2EB73002BE2D1AB7B0133DBB2A5
:10473000AB73002BDCD16B7B0133DBB26B73002BD3
:10474000D6D12B7B0133DBB22B73002BD0D1EB7A8C
:104750000133DBB2EB72002BCAD1AB7A0133DBB28F
:10476000AB72002BC4D16B7A0133DBB26B72002BBE
:10477000BED12B7A0133DBB22B72002BB8D1EB798F
:104780000133DBB2EB71002BB2D1AB790133DBB279
:10479000AB71002BACD16B790133DBB26B71002BA9
:1047A000A6D12B790133DBB22B71002BA0D1EB7892
:1047B0000133DBB2EB70002B9AD1AB780133DBB263
:1047C000AB70002B94D16B780133DBB26B70002B94
:1047D0008ED12B7801332B708AE76FF0200097E79A
:1047E0004FF48472002119F06CBB00BF18B14FF474
:1047F000847105F083BA7047002370B5C0E90033B7
:1048000000F1070C00F10805644604F8013F01338C
:10481000B3F5807FF9D14FF0000E00F20716734612
:1048200072458CBF01EB0E0008461CF8014F007862
:1048300023440344DBB288BF0EF1010EE85C8CF820
:10484000000098BF4FF0010EB445EC54E8D170BDA4
:1048500070B5D0E90054F1B1561800F1080C511EA2
:1048600003F1FF3E013E0135EDB21CF80520144472
:10487000E4B21CF804300CF8053013440CF80420A2
